:200000000C94E8030C9405040C9405040C943E2A0C9464330C9405040C9405040C940504C9
:200020000C9405040C9405040C9405040C94E61D0C9405040C9405040C9405040C9405047E
:200040000C948F160C9405040C942B140C94E6130C9405040C9405040C9405040C94050496
:200060000C9405040C94050489219021932196219B21A521B121262226222622BB21BE2181
:20008000C721D021262226222622262226222622DA21E821F621002203220C2215221A22D4
:2000A000084AD73B3BCE016E84BCBFFDC12F3D6C74319ABD56833DDA3D00C77F11BED9E4D4
:2000C000BB4C3E916BAAAABE000000803F05A84CCDB2D44EB93836A9020C50B991868808E6
:2000E0003CA6AAAA2ABE000000803F3E0D0A002C4C696D3A002C52583A002C4275663A00B3
:200100002C002C57506F733A002C002C4D506F733A003C446F6F72003C436865636B003C8D
:20012000416C61726D003C486F6D65003C486F6C64003C52756E003C49646C65005D0D0AAB
:20014000005B6563686F3A20005D0D0A005B302E396A2E32303135303933303A000D0A0068
:200160003D00244E005D0D0A00205300204600205400204D3800204D3900204D3500204DB5
:200180003400204D3300204D3200204D3100204D3000204739340020473933002047393139
:2001A00000204739300020473230002047323100204731390020473138002047313700204C
:2001C00047004733382E00473830004733004732004731004730005B005D0D0A005B544C9D
:2001E0004F3A005D0D0A002C005B4739323A005D0D0A002C003A003330003238005B470046
:200200005D0D0A003A002C005B5052423A00290D0A00206D61782074726176656C2C206D7E
:200220006D0020616363656C2C206D6D2F7365635E3200206D617820726174652C206D6DC1
:200240002F6D696E002C20737465702F6D6D007A00790078002028003D0024002028686FE7
:200260006D696E672070756C6C2D6F66662C206D6D290D0A002028686F6D696E6720646575
:20028000626F756E63652C206D736563290D0A2432373D002028686F6D696E6720736565BD
:2002A0006B2C206D6D2F6D696E290D0A2432363D002028686F6D696E6720666565642C2067
:2002C0006D6D2F6D696E290D0A2432353D00290D0A2432343D002028686F6D696E67206474
:2002E000697220696E76657274206D61736B3A002028686F6D696E67206379636C652C201F
:20030000626F6F6C290D0A2432333D00202868617264206C696D6974732C20626F6F6C2971
:200320000D0A2432323D002028736F6674206C696D6974732C20626F6F6C290D0A2432316C
:200340003D0020287265706F727420696E636865732C20626F6F6C290D0A2432303D0020C7
:200360002861726320746F6C6572616E63652C206D6D290D0A2431333D0020286A756E631F
:2003800074696F6E20646576696174696F6E2C206D6D290D0A2431323D00290D0A243131D0
:2003A0003D002028737461747573207265706F7274206D61736B3A00202870726F626520D2
:2003C00070696E20696E766572742C20626F6F6C290D0A2431303D0020286C696D6974209D
:2003E00070696E7320696E766572742C20626F6F6C290D0A24363D00202873746570206533
:200400006E61626C6520696E766572742C20626F6F6C290D0A24353D00290D0A24343D007F
:20042000202864697220706F727420696E76657274206D61736B3A00290D0A24333D00209E
:20044000287374657020706F727420696E76657274206D61736B3A00202873746570206988
:20046000646C652064656C61792C206D736563290D0A24323D002028737465702070756CDC
:2004800073652C2075736563290D0A24313D0024303D002424202876696577204772626C33
:2004A0002073657474696E6773290D0A2423202876696577202320706172616D65746572FD
:2004C00073290D0A244720287669657720706172736572207374617465290D0A2449202818
:2004E00076696577206275696C6420696E666F290D0A244E20287669657720737461727442
:20050000757020626C6F636B73290D0A24783D76616C7565202873617665204772626C2064
:2005200073657474696E67290D0A244E783D6C696E65202873617665207374617274757084
:2005400020626C6F636B290D0A24432028636865636B2067636F6465206D6F6465290D0A5C
:20056000245820286B696C6C20616C61726D206C6F636B290D0A2448202872756E20686FD5
:200580006D696E67206379636C65290D0A7E20286379636C65207374617274290D0A21209B
:2005A000286665656420686F6C64290D0A3F202863757272656E7420737461747573290DF4
:2005C0000A6374726C2D7820287265736574204772626C290D0A000D0A4772626C20302E49
:2005E000396A205B27242720666F722068656C705D0D0A005D0D0A00526573746F72696EFD
:20060000672064656661756C74730050676D20456E6400436865636B20446F6F7200446961
:200620007361626C656400456E61626C65640043617574696F6E3A20556E6C6F636B656442
:2006400000272448277C2724582720746F20756E6C6F636B00526573657420746F20636FF3
:200660006E74696E7565005B000D0A00486F6D696E67206661696C0050726F626520666178
:20068000696C0041626F727420647572696E67206379636C6500536F6674206C696D6974D9
:2006A0000048617264206C696D697400414C41524D3A20000D0A00496E76616C6964206750
:2006C000636F64652049443A00556E646566696E65642066656564207261746500556E7350
:2006E0007570706F7274656420636F6D6D616E64004D6F64616C2067726F75702076696FE0
:200700006C6174696F6E004C696E65206F766572666C6F7700486F6D696E67206E6F742043
:20072000656E61626C656400416C61726D206C6F636B004E6F742069646C6500454550521D
:200740004F4D2072656164206661696C2E205573696E672064656661756C74730056616C96
:200760007565203C203320757365630053657474696E672064697361626C65640056616CC7
:200780007565203C203000496E76616C69642073746174656D656E7400426164206E756DA0
:2007A00062657220666F726D617400457870656374656420636F6D6D616E64206C6574744D
:2007C0006572006572726F723A20006F6B0D0A0011241FBECFEFD8E0DEBFCDBF11E0A0E0AB
:2007E000B1E0E6E3F3E702C005900D92A030B107D9F716E0A0E0B1E001C01D92AD3CB1075F
:20080000E1F70E9407040C9499390C9400000E94B3130E9472230E94A5160E941C338DE1E6
:20082000E7E2F5E0DF011D928A95E9F781E08093270578948091BC0684FF03C081E0809353
:2008400028050E9426140E94F5120E9409130E948E130E94BB290E94DB2D0E94BF280E948A
:20086000B61D0E94FD230E94EE12109227051092440510924605109229050E94DD15E1CF87
:200880008091440584FD27C08FB7F894909144059061909344058FBF0E9411130E949113A3
:2008A00090912805892F8C7021F480912905813091F4943031F49FB7F894809146058062A3
:2008C00005C09FB7F894809146058860809346059FBF0E948A1D08950E94722A882359F059
:2008E0000E9440049FB7F894809146058360809346059FBF08950E94D92984E00E94A32A21
:2009000083E00E94A32A0E94951480912705882321F40E94EE120E94BB290895EF92FF92E6
:200920000F931F93CF93DF937B018C0180912805823009F447C0C801B70120E030E040EAD7
:2009400051E40E947E380E941D370E94B436EB010E94C615C801B70120E030E04AE754E425
:200960000E947E387B018C0182E390E0C89FB001C99F700DD89F700D112480E090E00E94A9
:20098000E0369B01AC01C801B7010E9466350E941D370E94B436DC01CB010E94882900E9D3
:2009A00011E00EC00E94951480912705882351F484EF91E0F8013197F1F70197D9F7219753
:2009C000209781F7DF91CF911F910F91FF90EF900895DF92EF92FF920F931F93CF93DF9372
:2009E000EC017A018B01D22E8091BC0685FF03C0CE010E94E42980912805823099F00E9450
:200A0000951480912705882369F40E94F323882319F00E948C14F3CFCE01B801A7012D2DEE
:200A20000E948325DF91CF911F910F91FF90EF90DF900895AF92BF92CF92DF92EF920F93AB
:200A40001F93CF93DF93EC015A016B01122F80912805823009F466C00E94C61510924205A2
:200A6000802F0E94DE2D0E94F12D882351F09FB7F894809146058061809346059FBF0E94F1
:200A8000951480912705882309F04CC0CE01B601A501212F0E94E90481E0809345059FB7A1
:200AA000F894809144058260809344059FBF0E949514809127058823A9F5809128058823FA
:200AC000B1F7809145058130A9F4EE2051F0E6E3F5E0DF011C978CE00D9001928150E1F700
:200AE0000CC09FB7F894809146058061809346059FBF03C081E080934205109245050E9443
:200B0000951480912705882369F40E94B61D0E94BF280E94FD23CE016AE275E00E944B3397
:200B20000E94B330DF91CF911F910F91EF90DF90CF90BF90AF9008952F923F924F925F9234
:200B40006F927F928F929F92AF92BF92CF92DF92EF92FF920F931F93DF93CF93CDB7DEB77A
:200B6000EF970FB6F894DEBF0FBECDBF9CAB8BAB7EAB6DAB3A010FAB18AF29AF3AAFCBAEF4
:200B8000DCAEEDAEFEAEAFAE9924880C991C880C991C880D991D9AAB89AB9A01280D391DEE
:200BA00038AB2FA7D901AD90BD90CD90DC90C601B501E9A9FAA920813181428153810E9411
:200BC00067356DA37EA38FA398A765966FAD6597462E5524440C551C440C551C2BA93CA99C
:200BE000240D351D3EA72DA7C301840D951D9CA78BA7DC01ED90FD900D911C91C801B7018A
:200C0000F90120813181428153810E94673569A37AA38BA39CA3D601C501B0588D8F9E8F2E
:200C2000AF8FB8A3D801C701B058898F9A8FAB8FBC8FADA9BEA98A0E9B1EF40160817181D6
:200C4000828193812DA13EA14FA158A50E9466353B014C012DA93EA9420E531ED2016D91CE
:200C60007D918D919C9129A13AA14BA15CA10E9466355B016C016D8D7E8D8F8D98A1A60186
:200C800095010E947E387B018C01698D7A8D8B8D9C8DA40193010E947E389B01AC01C8017C
:200CA000B7010E9466351B012C016D8D7E8D8F8D98A1A40193010E947E387B018C01698D0C
:200CC0007A8D8B8D9C8DA60195010E947E389B01AC01C801B7010E9467359B01AC01C20123
:200CE000B1010E94DA355B016C0167968FAD6797882399F0C601B5012DEB37E346E055EB48
:200D00000E9443388823ECF0C601B5012BED3FE049EC50E40E94663512C0C601B5012DEB6E
:200D200037E346E055E30E944036181654F0C601B5012BED3FE049EC50E40E9467355B01FA
:200D40006C01E090B806F090B9060091BA061091BB066FA978AD89AD9AAD9B01AC010E9461
:200D60006735A80197010E9466359B01AC01C801B7010E947E380E940B397B018C01C60181
:200D8000B50120E030E040E05FE30E947E382FA938AD49AD5AAD0E947E389F77A80197016A
:200DA0000E9447360E941D370E94B436788F6F8B6115710509F487C1BFADBB2381F080E045
:200DC00090E00E94E0369B01AC016BAD7CAD8DAD9EAD0E947E386BAF7CAF8DAF9EAF2F89FE
:200DE000388DB90180E090E00E94E0367B018C01C601B501A80197010E9447366B8B7C8B09
:200E00008D8B9E8B6696EFAD6697F0E0EE0FFF1FEE0FFF1F8BA99CA98E0F9F1F9AA789A7B1
:200E2000ADA9BEA9EA0FFB1F6081718182819381E9A5FAA520813181428153810E946635A4
:200E4000A80197010E9447366F87788B898B9A8B6B897C898D899E899B01AC010E947E3829
:200E60009B01AC0160E070E080E090E40E9466355B016C016B897C898D899E892BEA3AEA50
:200E80004AE25EE30E947E387B018C01C601B50120E030E040E850E40E9467359B01AC0114
:200EA000C801B7010E947E386B877C878D879E87C601B50120E030E040E05FE30E947E38E4
:200EC00069837A838B839C8321E030E03E832D839924F1C03BE0391508F446C06D8D7E8D9C
:200EE0008F8D98A12B853C854D855E850E947E387B018C01698D7A8D8B8D9C8D29813A8173
:200F00004B815C810E947E389B01AC01C801B7010E9467357B018C016D8D7E8D8F8D98A165
:200F200029813A814B815C810E947E385B016C01698D7A8D8B8D9C8D2B853C854D855E851E
:200F40000E947E389B01AC01C601B5010E9466356D8F7E8F8F8F98A39394C701D801898FF4
:200F60009A8FAB8FBC8F61C0AD81BE81BD0180E090E00E94E0362B893C894D895E890E9417
:200F80007E387B018C01C8010E9444366F83788789879A87B701C8010E9401393B014C01A5
:200FA000EFA5F8A9E080F1800281138117FB109517F91095ABA5BCA52D903D904D905C90A4
:200FC000C801B7012F81388549855A850E947E385B016C01C201B101A40193010E947E384F
:200FE0009B01AC01C601B5010E9467356D8F7E8F8F8F98A3C801B701A40193010E947E3879
:201000007B018C01C201B1012F81388549855A850E947E389B01AC01C801B7010E946635D9
:20102000698F7A8F8B8F9C8F99246DA17EA18FA198A52D8D3E8D4F8D58A10E946735E9A9E9
:20104000FAA9608371838283938369A17AA18BA19CA1298D3A8D4B8D5C8D0E946735ADA59F
:20106000BEA56D937D938D939C931397E9A5FAA560817181828193812F85388949895A89C3
:201080000E946735A9A5BAA56D937D938D939C9313978BA99CA94BAD5CAD6DAD7EAD2FADC1
:2010A0000E94E904809127058823B1F4ED81FE813196FE83ED832D813E818F89988D281786
:2010C000390708F407CF8DA99EA94BAD5CAD6DAD7EAD2FAD0E94E904EF960FB6F894DEBF5D
:2010E0000FBECDBFCF91DF911F910F91FF90EF90DF90CF90BF90AF909F908F907F906F90B1
:201100005F904F903F902F9008952F923F924F925F926F927F928F929F92AF92BF92CF921B
:20112000DF92EF92FF920F931F93DF93CF93CDB7DEB7A8970FB6F894DEBF0FBECDBF1C0148
:20114000E6E8F5E089E3DF011D928A95E9F73196A7E4B5E08AE00D9001928150E1F719822D
:2011600077241F8E1E8EAA24BB241CA2662461E0462E512C9924939452E0852EBBC2802F5F
:2011800081548A3118F081E00C94CF129F5F9983C101BE016F5F7F4FAE014E5F5F4F0E94F2
:2011A000D028882319F482E00C94CF12CA80DB80EC80FD80C701B6010E944C390E94B436DC
:2011C000162F70E0882777FD8095982F0E94E2369B01AC01C701B6010E94663520E030E0AC
:2011E00048EC52E40E947E380E94E1380E94B4369B01073421F00D3409F09AC14EC1183210
:2012000009F446C1193200F5143170F4113108F0E3C0143009F449C0143008F495C01A30DB
:2012200011F00C94BE1237C01C31A9F11D3128F4163110F00C94BE12FFC01E3161F1163296
:2012400011F00C94BE1280C01D3309F41BC11E3388F4153351F1163340F41B3209F4F5C0E1
:20126000113311F00C94BE12F0C01C3310F00C94BE1203C11C3540F41A3508F0BDC01035F8
:2012800011F00C94BE1267C01C3529F01F3510F00C94BE12C8C02115310539F4BCA1BB232C
:2012A00011F00C94BC12E1E0ECA31C31A9F01D3128F4143051F01A3069F40AC0153371F17F
:2012C0001C3581F11E3131F418C09092860502C08092860580E0DDC02115310531F02A300F
:2012E000310511F00C94BE1204C0F3E0F093860529C024E02093860525C02115310531F005
:201300002A30310511F00C94BE1204C085E08093860518C096E09093860514C0A7E0A0937B
:201320008605D8CF2115310531F02A30310511F00C94BE1204C0B8E0B093860503C0E9E037
:20134000E093860580E0E4C0FCA1FF2311F00C94BC1282E08CA3123089F0133028F411237E
:2013600051F0113069F40AC0163261F0103581F1133031F403C01092870502C0109387052A
:2013800081E087C02E313105B1F02F31310530F42431310511F00C94BE1209C02832310560
:2013A00071F02233310511F00C94BE120DC094E09093870507C0A5E0A093870503C0B6E07C
:2013C000B093870581E0A4C0E7E0E0938705FACFF8E0F0938705D4CF123139F0133149F077
:2013E000113129F410928B0502C090928B0582E050C080928B05FBCF6115710549F41A3592
:2014000019F410928A0502C090928A0583E080C06A30710511F00C94BE121A3511F00C9407
:20142000E8120C94BE121D3519F49092880502C01092880585E02DC0143119F490928905EF
:2014400002C01092890586E024C08CA1882311F00C94BC12113331F410928C0588E093E092
:201460009CA356C02A30310511F00C94BE1290928C0588E0A3E0ACA34BC0165310938D0580
:2014800089E007C0672B11F40C94EB120C94BE1287E0232BE9F10C94C012672B11F00C9444
:2014A000C012163018F41330C0F40AC0183010F40C94BE121A3008F11E3111F00C94BE1288
:2014C000123041F01E3131F0112311F490928E058BE01EC080928E05FBCF143039F01530D1
:2014E00041F0133041F49092900505C08092900502C0109290058CE00BC0183019F0193056
:2015000031F403C080928F0502C010928F058DE0920102C0220F331F8A95E2F7C9018A2193
:201520009B21892B11F00C94C212A22AB32AE2C0003509F472C00135BCF40A3409F443C0F3
:201540000B343CF4063449F1093411F00C94BE122EC00C3409F44FC00C340CF440C00E343E
:2015600011F00C94BE124BC00435A9F0053544F4023509F45CC0033511F00C94BE1261C091
:20158000093509F474C00A3509F47DC0083511F00C94BE1260C029E081C0C0929105D09201
:2015A0009205E0929305F092940520E077C0C0929505D0929605E0929705F0929805B1E091
:2015C0006B2A21E06BC0C0929905D0929A05E0929B05F0929C05E2E06E2A22E05FC0C09257
:2015E0009D05D0929E05E0929F05F092A005F4E06F2A23E053C01093A10524E04FC0C70160
:20160000B6010E94AF366093A2057093A3058093A4059093A50525E041C0C092A605D09259
:20162000A705E092A805F092A90526E037C0C092AA05D092AB05E092AC05F092AD0527E041
:201640002DC0C092AE05D092AF05E092B005F092B10528E023C0C092B305D092B405E092A1
:20166000B505F092B60521E0722A2AE017C0C092B705D092B805E092B905F092BA0582E0F5
:20168000782A2BE00BC0C092BB05D092BC05E092BD05F092BE0594E0792A2CE08201022E4E
:2016A00002C0000F111F0A94E2F78E8D9F8D80239123892B11F089E172C781E693E002C020
:2016C000959587952A95E2F780FF0EC06A817B818C819D8120E030E040E050E00E94403655
:2016E000882314F484E05BC7AE8DBF8DA02BB12BBF8FAE8F9981F101E90FF11D0081002342
:2017000009F03DCD772029F0BCA1BB2311F4E2E0ECA3FE8DF5FF0FC08091A2059091A305B6
:20172000A091A405B091A50580589649A849B04014F08BE134C780918805813039F48CA138
:201740008230B1F59E8D90FD33C01EC780914805882371F5AE8DA0FF1BC08091890581302D
:2017600039F56091910570919205809193059091940523E333E34BEC51E40E947E386093E6
:20178000910570939205809393059093940510C08091550590915605A0915705B0915805D0
:2017A0008093910590939205A0939305B0939405EE8DFF8DF0FD10C080915105909152057C
:2017C000A0915305B09154058093AE059093AF05A093B005B093B10580918605813041F4E6
:2017E000FE8DF6FFD3C68E8D9F8D8F7B9F8F8E8F80918B05882341F0813061F492E09BA301
:201800001AA2A1E0A9A30BC01BA2B1E0BAA3E2E0E9A305C0F1E0FBA322E02AA319A28091AC
:201820008905813051F543EBE42E45E0F42E00E010E0C72CDD24C601002E02C095958795DB
:201840000A94E2F780FF10C0D7016D917D918D919C9123E333E34BEC51E40E947E38F701BB
:2018600060837183828393830F5F1F4F84E090E0E80EF91E03301105F1F69CA1933049F44C
:2018800080918C05813029F4A4E07A1611F085E286C6DE011696EAE6F5E08CE001900D9244
:2018A0008150E1F7B1FE12C090918D05973008F06FC680914D05891749F0892FBE016A5FDB
:2018C0007F4F0E943922882309F464C680918605823021F0883009F0FDC09AC0772009F4B0
:2018E0005BC68E8D9F8D80759070892B09F44EC66091A6057091A7058091A8059091A905F0
:201900000E944C390E94B436673008F041C62091A105243131F0223009F030C6BE8DB7FD71
:201920002DC6662319F0615068A303C0E0918D05E8A38E010E5E1F4F88A1B8010E943922CD
:20194000882309F427C6780133EB832E35E0932E2EE5C22E25E0D22E00E010E0A72CBB244A
:20196000C501002E02C0959587950A94E2F780FF3BC08091A105843169F5D6016D917D91CD
:201980008D919C91139758962D913D914D915C915B970E946635F4012081318142815381FF
:2019A0000E946635D7016D937D938D939C9313970230D1F420918205309183054091840537
:2019C000509185050E946635F70160837183828393830AC0F40180819181A281B381F70154
:2019E00080839183A283B3830F5F1F4F84E090E0E80EF91E880E991EC80ED91E0330110555
:201A000009F0AECFAE8DBF8DAF7ABF8FAE8F02C1772009F4C1C503EB15E09EE5C92E95E066
:201A2000D92E86E0882E912C8C0E9D1EEE24FF24A72CBB24C5010E2C02C0959587950A94E4
:201A4000E2F780FF2CC0F6016081718182819381D4012D913D914D915C910E946635F801FF
:201A600020813181428153810E946635D8016D937D938D939C931397B2E0EB16D1F4209154
:201A800082053091830540918405509185050E946635F80160837183828393830AC0F601C8
:201AA000808D918DA28DB38DF80180839183A283B3830894E11CF11C0C5F1F4F84E090E0CE
:201AC000C80ED91E880E991E93E0E916F10409F0B1CF9FC0ACA1A33009F47CC0772009F4C0
:201AE00079C01EE5C12E15E0D12E03EB15E0B6E0AB2EB12CAC0EBD1EEE24FF24872C99245E
:201B0000C4010E2C02C0959587950A94E2F780FD0BC0F60180819181A281B381F8018083A2
:201B20009183A283B38346C080918605873009F441C080918A05882361F5D5016D917D915C
:201B40008D919C91F601208D318D428D538D0E946735D8012D913D914D915C910E9467357D
:201B6000F8016083718382839383F2E0EF1611F52091820530918305409184055091850557
:201B80000E946735D8016D937D938D939C93139711C0F8016081718182819381D6012D91DC
:201BA0003D914D915C910E946735F80160837183828393830894E11CF11C84E090E0C80E13
:201BC000D91E0C5F1F4FA80EB91E93E0E916F10409F096CF80918605853049F0873099F019
:201BE0008330B9F4772009F41CA286E004C0772009F41CA287E0BE016E5E7F4F0E943922FA
:201C0000882339F4C7C480918705823010F08EE1C6C418A210918705183049F4772009F419
:201C20005FC2ACA1A13009F45BC28FE1B8C4BCA1B23009F055C21123E9F06091910570917B
:201C40009205809193059091940520E030E040E050E00E944036882309F496C4143030F4A8
:201C6000123060F4113009F03BC204C0183008F037C213C2772009F432C232C2772009F4B5
:201C80008BC4FBA1EF2FF0E0F8A7EFA39AA1892F90E09EA38DA381E090E08C010DA002C099
:201CA000000F111F0A94E2F70FA002C0880F991F0A94E2F7082B192B872D90E08023912345
:201CC000892B11F480E26BC4EFA1F8A5EE0FFF1FEE0FFF1FDF01A95BBA4FEA57FA4F65A5D6
:201CE00076A587A590A957962D913D914D915C915A970E9466355B016C01EDA1FEA1EE0FFF
:201D0000FF1FEE0FFF1FDF01A95BBA4FEA57FA4F65A576A587A590A957962D913D914D9132
:201D20005C915A970E9466351B012C01AE8DA7FF02C10EE515E063EBE62E65E0F62EF801EF
:201D40006081718182819381D7012D913D914D915C910E944036882359F40C5F1F4FE4E0BD
:201D6000F0E0EE0EFF1EF5E00A361F0741F716C4809189058130B1F46091AA057091AB05E7
:201D80008091AC059091AD0523E333E34BEC51E40E947E386093AA057093AB058093AC05B5
:201DA0009093AD05E090AA05F090AB050091AC051091AD05C801B70120E030E040E850E47D
:201DC0000E947E38A80197010E947E387B018C01C601B501A60195010E947E389B01AC01AE
:201DE000C801B7010E9466357B018C01C201B101A20191010E947E389B01AC01C801B70150
:201E00000E9466357B018C0120E030E040E050E00E944036882314F482E2C1C3C801B701E8
:201E20000E940B397B018C01C601B501A20191010E9492299B01AC0117FB109517F91095EF
:201E4000C801B7010E9447367B018C0180918705833021F417FB109517F910956090AA0569
:201E60007090AB058090AC059090AD05C401B30120E030E040E050E00E94403688237CF413
:201E800017FB109517F91095D401C301B0588093AA059093AB05A093AC05B093AD058E8DAC
:201EA0009F8D8F779F8F8E8FAFA1B8A5AA0FBB1FAA0FBB1FA657BA4FB8A7AFA3C201B101A6
:201EC000A80197010E947E389B01AC01C601B5010E94663520E030E040E05FE30E947E389C
:201EE000EFA1F8A563877487858796878DA19EA1880F991F880F991F86579A4F9EA38DA365
:201F0000C601B501A80197010E947E389B01AC01C201B1010E94673520E030E040E05FE33D
:201F20000E947E38ADA1BEA11B966D937D938D939C931E97D5C0862C992408211921012B44
:201F400011F483E22CC3EE8DFF8DE17FFF8FEE8F80918905813041F535E9E32E35E0F32ECB
:201F600000E010E0C401002E02C0959587950A94E2F780FF10C0D7016D917D918D919C91A1
:201F800023E333E34BEC51E40E947E38F70160837183828393830F5F1F4F84E090E0E80ED1
:201FA000F91E03301105F1F6EFA0F8A4EE0CFF1CEE0CFF1CAAE8B5E0EA0EFB1EC601B501D0
:201FC000F70123853485458556850E9466355B016C010DA11EA1000F111F000F111F0657B5
:201FE0001A4FC201B101D8011B962D913D914D915C911E970E9466359B01AC01C601B5016A
:202000000E9492295B016C01F7016385748585859685D8011B962D913D914D915C911E9706
:202020000E9492293B014C016093AA057093AB058093AC059093AD05C601B501A401930116
:202040000E9466357B018C01E89417F9C801B7012AE037ED43EA5BE30E94433818160CF04D
:202060003FC0C801B70120E030E040E05FE30E94433818160CF492C2C401B3012FE632E12E
:2020800043E85AE30E947E389B01AC01C801B7010E944338181624F581C2772009F47CC23D
:2020A0000EE515E083EBE82E85E0F82EF8016081718182819381D7012D913D914D915C9117
:2020C0000E944036882361F40C5F1F4FE4E0F0E0EE0EFF1EF5E00A361F0741F75FC21CA210
:2020E0008E8D9F8D8E7D9C7F2CA1222321F08E8D9F8D8E7D907E892B11F084E250C28091B2
:20210000A2059091A305A091A405B091A50580935A0590935B05A0935C05B0935D0580914B
:202120008805809348058091910590919205A0919305B09194058093550590935605A09392
:202140005705B0935805E090AE05F090AF050091B0051091B10560915105709152058091DF
:20216000530590915405A80197010E9440368823C1F080915005882321F0B801A7010E94B3
:2021800075138091AE059091AF05A091B005B091B1058093510590935205A0935305B09390
:2021A00054058091B205809359059091900580915005891779F04091510550915205609118
:2021C000530570915405892F0E947513809190058093500590918F0580914F05891739F07A
:2021E000892F0E94991380918F0580934F0580918605813051F46091A6057091A7058091E1
:20220000A8059091A9050E948E0480918B0580934B0580918905809349058CA18330D9F45D
:2022200080918C0580934C05813049F48091BB059091BC05A091BD05B091BE0504C080E0DC
:2022400090E0A0E0B0E08093820590938305A0938405B093850590918D0580914D0589177A
:2022600059F090934D05AAE6B5E0FE0136968CE001900D928150E1F780918A0580934A0569
:2022800080918605853059F1863048F4833039F1843008F044C0823009F05AC00AC08830DD
:2022A00009F445C0893009F44CC0863009F050C038C08E010E5E1F4F88A1B8010E942E2266
:2022C00080914D0598A1891709F042C0AAE6B5E0F8018CE001900D928150E1F739C0ACA11E
:2022E000AA2349F083EB95E040E050E060E87FEB20E00E94E9048E010E5E1F4FC80140E012
:2023000050E060E87FEB20E00E94E904AEE5B5E0F8018CE001900D928150E1F719C086E0A7
:2023200001C087E06EE575E00E942E2211C0A6E7B5E0E3EBF5E08CE001900D928150E1F700
:2023400007C08CE0E6E7F5E0DF011D928A95E9F78091870580934705883009F4C2C0BCA18A
:20236000B23009F0BEC0833009F44AC0843028F48130C1F0823028F50DC0853009F47AC090
:20238000853008F469C0863009F482C0873009F09FC08DC083EB95E040E050E060E87FEB2D
:2023A00020E00CC04091550550915605609157057091580583EB95E0209148050E94E904CF
:2023C00087C000D00F92EDB7FEB731960091AA051091AB052091AC053091AD05C090550515
:2023E000D0905605E0905705F09058058AA1ADB7BEB711968C9399A1918381E082831DC01E
:2024000000D00F92EDB7FEB731960091AA051091AB052091AC053091AD05C0905505D090BB
:202420005605E0905705F09058058AA1ADB7BEB711968C9399A1918312828EE595E063EBB6
:2024400075E045E955E0A09048058BA00E949C050F900F900F903CC0409155055091560599
:20246000609157057091580583EB95E02091480500E01BC040915505509156056091570561
:202480007091580583EB95E02091480500E01CC0409155055091560560915705709158052F
:2024A00083EB95E02091480501E0EE240FC04091550550915605609157057091580583EBF9
:2024C00095E02091480501E0EE24E3940E941A05AEE5B5E0E3EBF5E08CE001900D92815026
:2024E000E1F780918E0580934E05882309F457C00E94C61580914E05813079F480912805FE
:202500008230B1F19FB7F894809144058860809344059FBF0E9495142BC081E08093470593
:2025200010924B0510924A051092480510924D051092500510924F05809128058230A9F05F
:202540008E010A5F1F4F80E0B8010E943922882309F1AAE6B5E0F8018CE001900D928150CF
:20256000E1F70E9411130E94911387E00E941C2E10924E0580E013C088E111C084E10FC08E
:2025800087E10DC085E10BC086E109C08CE107C08DE105C087E003C08AE101C081E2A89647
:2025A0000FB6F894DEBF0FBECDBFCF91DF911F910F91FF90EF90DF90CF90BF90AF909F901B
:2025C0008F907F906F905F904F903F902F90089584E00C94880A8AE00C94880A8EE595E0BB
:2025E0006AE275E00E944B330895E7E4F5E08FE3DF011D928A95E9F780914D05BF016D5DF0
:202600007F4F0E943922882319F487E00E94552E0895239A259AE0EBF0E080818F778083ED
:202620000895E0EBF0E080818F7780830895EF92FF920F931F937A018B01882331F480916D
:20264000B0008F778093B0004BC0813011F42D9801C02D9A83E88093B0008091B100887FFC
:2026600082608093B100C801B70120E030E040E050E00E94403688235CF40F2EF0E0EF2E96
:20268000F0E0FF2EF0E00F2FF0E01F2FF02D14C0C801B70120E030E04AE754E40E94433809
:2026A000181654F40F2EF0E0EF2EF0E0FF2EFAE70F2FF4E41F2FF02DC801B7012CE53FE862
:2026C00042E85EE30E947E3820E030E040E05FE30E9467350E941D370E94B4366093B3005F
:2026E0001F910F91FF90EF900895DF92EF92FF920F931F93D82E7A018B018091280582300B
:2027000039F00E94C6158D2DB801A7010E9417131F910F91FF90EF90DF9008953B9A439812
:20272000089543980895823011F4439A0895439808951F93182F80912805823039F00E9427
:20274000C615123011F4439A01C043981F9108959091010180910001891710F0891B08957B
:202760008058891B0895E0ECF0E08081826080831092C50080E18093C400E1ECF0E0808181
:20278000806180838081886080838081806880830895282FE09102019E2F9F5F903431F461
:2027A00090E004C08091440584FD0FC0809103019817C1F3F0E0E154FA4F208390930201AC
:2027C0008091C10080628093C10008951F920F920FB60F9211248F939F93EF93FF9380916E
:2027E0000301E82FF0E0E154FA4F90819093C600982F9F5F903409F490E090930301809148
:202800000201981729F48091C1008F7D8093C100FF91EF919F918F910F900FBE0F901F901D
:2028200018959091010180910001891711F48FEF0895E92FF0E0E150FA4F8081E92FEF5F2D
:20284000E03809F4E0E0E09301010895809100018093010108951F920F920FB60F921124E0
:202860002F933F934F935F936F937F938F939F93AF93BF93EF93FF939091C6009F3361F0D6
:20288000903428F4983119F1913221F514C09034C1F09E37F9F406C09FB7F894809144059F
:2028A000816005C09FB7F894809144058260809344059FBF20C09FB7F89480914405886096
:2028C000F6CF9FB7F894809144058062F0CF0E94400411C0E09100012E2F2F5F203809F4ED
:2028E00020E080910101281731F0F0E0E150FA4F908320930001FF91EF91BF91AF919F9184
:202900008F917F916F915F914F913F912F910F900FBE0F901F9018959FB7F8948091440584
:202920008260809344059FBF0895CF92DF92EF92FF920F931F93CF93DF93FF24F39428E0A0
:20294000D22E90E2C92E00E180E4E82E80914605882381F1F0922805182F81FF02C081E0A1
:202960000FC082FF02C082E00BC083FF02C083E007C084FF02C084E003C085FF03C085E092
:202980000E94EE3210FF0FC081E00E941C2E9FB7F894809144058F7E809344059FBF809136
:2029A000440584FFFCCF8FB7F89490914605109246058FBF10914405112309F4C5C0C12F77
:2029C000D0E014FF04C081E080932705D6C010FF0AC00E94BC2E9FB7F894809144058E7F8C
:2029E000809344059FBFCE0188769070892B09F43DC090912805992349F0892F8C7771F142
:202A0000983021F40E94C716F092290590912805992319F482E080932905C6FF09C098309A
:202A200011F4E092280580912905886080932905C3FF06C08091280585FD02C000932805C0
:202A4000C5FF0CC086E00E941C2E8091290581FD1460846080932905C09228059FB7F894DD
:202A6000809144058779809344059FBFC12FD0E011FF4AC0CE0188769070892BE9F5809118
:202A80002805882331F08075B9F18091290581FF33C08091290582FF1CC08091500588233F
:202AA00071F0409151055091520560915305709154050E94171380EA9FE00E94882980919A
:202AC0004F05882331F00E94931388EE93E00E9488290E94E223892B59F08091290583FDEF
:202AE00007C0D09228050E94E9160E94671602C010922805109229059FB7F8948091440523
:202B00008D7F809344059FBFC2FF1EC080912805807371F08091290582FF04C00E94111374
:202B20000E9491138091290582608093290504C010922905109228059FB7F894809144054E
:202B40008B7F809344059FBF809128058C7711F00E94E91680912805803251F4809129055A
:202B600081FF06C00E942D33882311F40093280580912905882309F0E9CEDF91CF911F9183
:202B80000F91FF90EF90DF90CF9008959FB7F894809144058260809344059FBF0E949514F9
:202BA00080912705882341F40E94E223892BB1F780912805883091F308950F931F930E94E8
:202BC000172E80912805813021F482E00E941C2E28C00E942D33882341F08091440580625C
:202BE000809344050E94951402C01092280584E091E00E949C3315C09A3011F09D3029F5CC
:202C0000E12FF0E0EC5FFE4F10820E94951480912705882331F480910401882321F40E94DA
:202C2000552E00E02BC0843229F484E091E00E94C833F5CF80912805813011F489E0EFCF22
:202C400084E091E00E948508EACF002331F0993239F5013029F500E023C0913208F19F32DB
:202C6000F9F0983211F401E01BC09B3311F402E017C01F3428F08BE00E94552E10E010C099
:202C8000892F8156A12FB0E0E12FEF5F8A3120F4AC5FBE4F905202C0AC5FBE4F9C931E2FC8
:202CA0000E941114982F8F3F09F0A6CF8FB7F894909144059260909344058FBF0E94951417
:202CC00080912705882361F31F910F9108958091BC0682FF02C0289A01C028988091280534
:202CE0008C70E1F08091F4018093DC018091F3018093DB018091AF0690E0A0E0B0E002973E
:202D0000A109B109880F991FAA1FBB1F81958093DA0180916F00826080936F0008951F9227
:202D20000F920FB60F9211248F939F939BB18091F3018C71937E892B8BB915BC9F918F918B
:202D40000F900FBE0F901F9018958AB18C618AB9209A8AB1806E8AB9E1E8F0E080818F7ED4
:202D60008083808188608083E0E8F0E080818C7F808380818F708083EEE6F0E08081887F0E
:202D8000808314BC15BC8081816080830895CF93DF93C091F601D091F7012097B9F081E0D7
:202DA0008093FB0120911102309112024091130250911402CA01B9010E947E38698B7A8BB8
:202DC0008B8B9C8B1092F7011092F601DF91CF9108952F923F924F925F926F927F928F927F
:202DE0009F92AF92BF92CF92DF92EF92FF920F931F93DF93CF93CDB7DEB7E9970FB6F8941A
:202E0000DEBF0FBECDBF80912805807709F426C66091110270911202809113029091140228
:202E200020E030E040E050E00E944036882309F015C61BC68091F6019091F701892B09F0EC
:202E40007EC20E94E2239093F7018093F601892B09F40BC68091FB01882319F01092FB0185
:202E6000CAC08091FA018F5F8093FA01853011F41092FA01E091FA0121E1E29FF001112454
:202E8000EC5AFE4FF093F901E093F8010091F6011091F701D8018C91808311962D913D9169
:202EA0004D915C91149793E0220F331F441F551F9A95D1F7218332834383548315962D9179
:202EC0003D914D915C91189783E0220F331F441F551F8A95D1F72583368347835087199655
:202EE0002D913D914D915C911C9773E0220F331F441F551F7A95D1F721873287438754873E
:202F00001D962D913D914D915C91509763E0220F331F441F551F6A95D1F725873687478725
:202F2000508B1D966D917D918D919C9150970E94E0366093FC017093FD018093FE019093E7
:202F4000FF01F80125A136A147A150A50E9447369B01AC0160930002709301028093020284
:202F60009093030260E070E080EA9FE30E9447366093040270930502809306029093070244
:202F800080E090E0A0E0B0E08093080290930902A0930A02B0930B02809128058077E1F071
:202FA0002091190230911A0240911B0250911C0220931102309312024093130250931402FD
:202FC000CA01B9010E947E38D80151966D937D938D939C9354970FC0F80161897289838951
:202FE00094890E940B396093110270931202809313029093140280E090E0A0E0B0E080935D
:203000000D0290930E02A0930F02B09310020091F6011091F701D80191968D919D910D90CB
:20302000BC91A02D88AB99ABAAABBBAB60E070E080E09FE328A939A94AA95BA90E94473609
:203040001B012C0180912805807709F456C0B2E0B0930C02F801A5A0B6A0C7A0D0A46188A4
:20306000728883889488C201B101A40193010E947E389B01AC01C601B5010E9466357B01AA
:203080008C0120E030E040E050E00E9440368823FCF468A979A98AA99BA920E030E040E0B6
:2030A00050EC0E947E38A60195010E947E389B01AC01C401B3010E9467350E940B3960930E
:2030C000190270931A0280931B0290931C0237C1E0920D02F0920E0200930F0210931002E1
:2030E00080E090E0A0E0B0E08093190290931A02A0931B02B0931C0222C110920C02F80146
:2031000085A196A1A7A1B0A580931D0290931E02A0931F02B09320020E9461255B016C0196
:203120006093190270931A0280931B0290931C02A60195010E947E383B014C012091F6012B
:203140003091F70139AF28AFD90195968D919D910D90BC91A02D8B8F9C8FAD8FBE8FF90127
:203160006189728983899489A40193010E9466359B01AC01C201B1010E947E389B01AC016C
:203180006B8D7C8D8D8D9E8D0E94673520E030E040E05FE30E947E387B018C0120E030E0C8
:2031A00040E050E00E94433818160CF0B4C0C801B7012B8D3C8D4D8D5E8D0E94403688237A
:2031C0000CF095C0A8ADB9AD5D966D917D918D919C919097A40193010E9466359B01AC01B3
:2031E000C201B1010E947E3860932102709322028093230290932402A80197010E944036EB
:2032000088230CF047C0E8ADF9ADE58CF68C078D10A1C801B7010E940B3960931502709319
:2032200016028093170290931802A8ADB9AD5196AD90BD90CD90DC905497C601B501A80107
:2032400097010E944036882321F4B1E0B0930C0276C0C801B701A60195010E9466359B014F
:20326000AC01C201B1010E947E389B01AC0160911D0270911E0280911F02909120020E9443
:20328000663560931D0270931E0280931F029093200255C0E0921D02F0921E0200931F02E9
:2032A00010932002E0922102F09222020093230210932402E8ADF9AD21A132A143A154A1E4
:2032C000CA01B9010E946735A80197010E947E38A40193010E9467350E940B39609315022B
:2032E00070931602809317029093180228C0F2E0F0930C028091110290911202A091130260
:20330000B09114028093150290931602A0931702B093180214C080E090E0A0E0B0E0809381
:203320001D0290931E02A0931F02B0932002A0921502B0921602C0921702D09218028091D7
:20334000F101B6E08B9FD0011124A755BE4FB9AFA8AF8091FA0112968C93E091F601F09131
:20336000F701FA8FE98F85A196A1A7A1B0A58D8B9E8BAF8BB88FBC01CD0120910402309195
:20338000050240910602509107020E9466356CA37DA38EA39FA320E030E040E050E00E9482
:2033A0004036882344F480E090E0A0E0B0E08CA39DA3AEA3BFA380911D0290911E02A09110
:2033C0001F02B0912002898B9A8BAB8BBC8B8091150290911602A0911702B09118028D8799
:2033E0009E87AF87B88B8091210290912202A0912302B091240289879A87AB87BC87809142
:203400000D0290910E02A0910F02B09110028D839E83AF83B8878091190290911A02A0919B
:203420001B02B0911C0289839A83AB83BC838091110290911202A0911302B091140288A359
:2034400099A3AAA3BBA390910C029F8FAD88BE88CF88D88C8EE393ECAEE2B9E38CA79DA75F
:20346000AEA7BFA780E090E0A0E0B0E088A799A7AAA7BBA70F2EFEE36F2EF3EC7F2EFEE268
:203480008F2EF9E39F2EF02D9F8D992321F0913009F0B3C080C0C401B301A98DBA8D919626
:2034A0002D913D914D915C9194970E947E387B018C0120E030E040E05FE30E947E389B01C3
:2034C000AC0168A179A18AA19BA10E9467359B01AC01C401B3010E947E389B01AC01C6014D
:2034E000B5010E9466355B016C0129893A894B895C890E94403688230CF040C069897A892E
:203500008B899C8929853A854B855C850E944036882319F4B2E0BF8F02C0E1E0EF8F6D89AD
:203520007E898F89988D29893A894B895C890E9466359B01AC010E9467357B018C0168A143
:2035400079A18AA19BA12D853E854F8558890E9467359B01AC01C801B7010E9447363B015D
:203560004C01A988BA88CB88DC888D859E85AF85B88988A399A3AAA3BBA3B0C068A179A185
:203580008AA19BA1A80197010E94673568A379A38AA39BA3A3C06D857E858F859889A40181
:2035A00093010E947E389B01AC01C601B5010E9466357B018C0129853A854B855C850E9453
:2035C000403687FD03C05701680188C0C601B50129853A854B855C850E9466352D853E85D8
:2035E0004F8558890E9447363B014C01A984BA84CB84DC8492E09F8F71C0C401B301A98DD4
:20360000BA8D91962D913D914D915C9194970E947E387B018C0168A179A18AA19BA1A80126
:2036200097010E9443381816ACF5C801B70120E030E040E05FEB0E947E389B01AC0168A161
:2036400079A18AA19BA10E9467359B01AC01C401B3010E947E389B01AC01C601B5010E9429
:2036600066351B012C012D813E814F8158850E94433818167CF468A179A18AA19BA1A8015E
:2036800097010E94663568A379A38AA39BA36201510124C0C601B5012D813E814F81588593
:2036A0000E9466359B01AC010E9467357B018C0168A179A18AA19BA129813A814B815C81A5
:2036C0000E9467359B01AC01C801B7010E9447363B014C01AD80BE80CF80D88468A579A5F9
:2036E0008AA59BA5A40193010E94673568A779A78AA79BA72CA53DA54EA55FA50E94403680
:2037000088232CF46CA57DA58EA59FA518C0C601B5012CA13DA14EA15FA10E9443381816FA
:203720000CF56CA57DA58EA59FA52EE333EC4EE259E30E9467356CA77DA78EA79FA728A585
:2037400039A54AA55BA50E9466353B014C01C601B5012D813E814F8158850E9443381816F4
:203760000CF492CE88A199A1AAA1BBA18093110290931202A0931302B09314029F8D909392
:203780000C02C601B501209100023091010240910202509103020E947E386CAB7DAB8EAB9C
:2037A0009FAB0E942D361B012C016091FC017091FD018091FE019091FF010E942D363B0112
:2037C0004C01A20191010E9466350E94B436A8ADB9AD6D937C93672BB1F580912805807767
:2037E00091F180E090E0A0E0B0E08093110290931202A0931302B093140280930802909329
:203800000902A0930A02B0930B022092FC013092FD014092FE015092FF010091F6011091C3
:20382000F701C201B101209100023091010240910202509103020E944736F80165A376A3B0
:2038400087A390A702C168A579A58AA59BA5209108023091090240910A0250910B020E94B6
:2038600067357B018C01C401B3012CA93DA94EA95FA90E9466359B01AC01C801B7010E94C7
:2038800047367B018C01C201B1012CA93DA94EA95FA90E946635A80197010E947E386093AA
:2038A00008027093090280930A0290930B02C801B70120EC31EE44E65EE40E947E380E948F
:2038C0002D360E94B436AB01BC01403DF7E05F07F0E06F07F0E07F0728F4A8ADB9AD1596B8
:2038E0001C9233C0403ABFE05B07B0E06B07B0E07B0728F421E0E8ADF9AD25830FC0403455
:203900003FE1530730E0630730E0730710F4E2E001C0E3E0A8ADB9AD1596EC93A8ADB9AD3F
:2039200015962C911597022E04C076956795579547950A94D2F78D919C91119702C0880FFD
:20394000991F2A95E2F78D939C934030B0E05B07B1E06B07B0E07B0728F4E8ADF9AD548323
:20396000438308C0EFEFFFEFA8ADB9AD1496FC93EE9313978091F2018093F1018F5F8093C4
:20398000F201863011F41092F201C601B50120910D0230910E0240910F02509110020E945F
:2039A00043381816ACF4E091F601F091F701A5A2B6A2C7A2D0A68CA99DA9AEA9BFA9809312
:2039C000FC019093FD01A093FE01B093FF0146C0C601B50120E030E040E050E00E94433854
:2039E0001816B4F580E090E0A0E0B0E08093110290931202A0931302B093140280930802F5
:203A000090930902A0930A02B0930B022092FC013092FD014092FE015092FF010091F6013F
:203A20001091F701C201B101209100023091010240910202509103020E944736D801959623
:203A40006D937D938D939C9398970E9458250DC01092F7011092F6010E94CE239091F00114
:203A60008091F201981709F0E5C9E9960FB6F894DEBF0FBECDBFCF91DF911F910F91FF9077
:203A8000EF90DF90CF90BF90AF909F908F907F906F905F904F903F902F900895FF920F93C3
:203AA0001F93CF93DF931092F3011092F401C0E0D0E00C2FFC2E8091B00690E00C2E02C06B
:203AC000959587950A94E2F780FF08C01091F3018C2F0E94C220182B1093F3018091B1066C
:203AE00090E002C095958795FA94E2F780FF08C01091F401802F0E94CC20182B1093F401F2
:203B00002196C330D105A9F6DF91CF911F910F91FF90089580916F008D7F80936F0080911B
:203B20008100887F8160809381001092F5019091B2069F3F21F480914605882351F08091CB
:203B40002805843031F0892F90E00E94882991E001C090E08091BC0682FF02C081E0982710
:203B6000992311F0289A0895289808950E948A1D8BE2EAEFF1E0DF011D928A95E9F783E279
:203B8000EDECF1E0DF011D928A95E9F71092EF011092EE011092F7011092F6011092F00104
:203BA0001092F10181E08093F2011092F5010E944E1D8BB1837E9091F301892B8BB98BB1DF
:203BC0008F719091F401892B8BB908951F920F920FB60F9211242F933F934F935F936F93E3
:203BE0007F938F939F93AF93BF93CF93DF93EF93FF938091F501882309F007C29BB1809112
:203C0000DC01807E9F71892B8BB98BB1837E9091DB01892B8BB98091DA0186BD82E085BDBC
:203C200081E08093F50178948091EE019091EF01892B09F0A2C09091F0018091F101891739
:203C400009F490C09091F00186E0989FE0011124C755DE4FD093EF01C093EE018B819C814B
:203C60009093890080938800888199819093EA018093E9019A818091EB01891761F19093A2
:203C8000EB01E1E19E9FF0011124EC5AFE4FF093ED01E093EC0185859685A785B089B695DA
:203CA000A795979587958093D5019093D601A093D701B093D8018093D1019093D201A09368
:203CC000D301B093D4018093CD019093CE01A093CF01B093D001E091EC01F091ED01809130
:203CE000F401908189278093DC012D8181819281A381B481022E04C0B695A795979587953F
:203D00000A94D2F78093DD019093DE01A093DF01B093E00185819681A781B085022E04C0A4
:203D2000B695A795979587950A94D2F78093E1019093E201A093E301B093E40181859285F6
:203D4000A385B48504C0B695A795979587952A95D2F78093E5019093E601A093E701B09386
:203D6000E8010BC00E948A1D9FB7F894809144058460809344059FBF48C10E94F72D1092FB
:203D8000DB012091DD013091DE014091DF015091E0018091CD019091CE01A091CF01B09194
:203DA000D001280F391F4A1F5B1F2093CD013093CE014093CF015093D001E091EC01F09177
:203DC000ED0185859685A785B08982179307A407B507A8F584E08093DB0185859685A78590
:203DE000B089281B390B4A0B5B0B2093CD013093CE014093CF015093D001808185FF0CC08D
:203E000080912A0590912B05A0912C05B0912D050197A109B1090BC080912A0590912B05E4
:203E2000A0912C05B0912D050196A11DB11D80932A0590932B05A0932C05B0932D0520916B
:203E4000E1013091E2014091E3015091E4018091D1019091D201A091D301B091D401280F38
:203E6000391F4A1F5B1F2093D1013093D2014093D3015093D40185859685A785B08982176A
:203E80009307A407B507B8F58091DB0188608093DB0185859685A785B089281B390B4A0B4A
:203EA0005B0B2093D1013093D2014093D3015093D401808186FF0CC080912E0590912F0537
:203EC000A0913005B09131050197A109B1090BC080912E0590912F05A0913005B0913105C8
:203EE0000196A11DB11D80932E0590932F05A0933005B09331052091E5013091E601409111
:203F0000E7015091E8018091D5019091D601A091D701B091D801280F391F4A1F5B1F2093C8
:203F2000D5013093D6014093D7015093D80185859685A785B08982179307A407B507B8F5D9
:203F40008091DB0180618093DB0185859685A785B089281B390B4A0B5B0B2093D50130938C
:203F6000D6014093D7015093D801808187FF0CC08091320590913305A0913405B09135052A
:203F80000197A109B1090BC08091320590913305A0913405B09135050196A11DB11D80939E
:203FA000320590933305A0933405B093350580912805843039F4809143059091DB01892365
:203FC0008093DB018091E9019091EA0101979093EA018093E901892B79F41092EF011092F3
:203FE000EE018091F0018F5F8093F0018091F001863011F41092F0018091F3019091DB018C
:2040000089278093DB011092F501FF91EF91DF91CF91BF91AF919F918F917F916F915F91A9
:204020004F913F912F910F900FBE0F901F901895F999FECF92BD81BD81E08FBB80B5089540
:20404000F894F999FECF92BD81BD81E08FBB40B54627842F992787FD9095262F30E08223B5
:204060009323892B39F06F3F19F060BD84E006C084E104C0442321F060BD84E28FBBF99AAE
:20408000789408958F929F92AF92BF92CF92DF92EF92FF920F93DF93CF9300D0CDB7DEB750
:2040A0005C016B017A014A0100E01EC0002319F021E030E008C0202F332727FD30952227D3
:2040C000330F221F3327F60161916F01062F020F9C012F5F3F4F3A8329830E9420200894C4
:2040E0008108910889819A8181149104F9F6C7018A0D9B1D602F0E9420200F900F90CF913A
:20410000DF910F91FF90EF90DF90CF90BF90AF909F908F900895CF93DF93EC01FB019A01E2
:2041200090E0B1E019C0F999FECFF2BDE1BDBFBBA0B5992319F081E090E008C0892F992754
:2041400087FD90958827990F881F992731969A2F980FA993215030402115310521F7460FCB
:20416000571FF999FECF52BD41BD81E08FBB80B520E030E0981711F421E030E0C901DF916E
:20418000CF910895882311F484E00895813011F080E1089588E00895882311F480E208950D
:2041A000813011F080E8089580E40895882311F482E00895813011F080E1089584E00895E7
:2041C00080E090E00E941820893011F020E00CC08FE796E061E070E04DE450E00E948B2084
:2041E00020E0892B09F021E0822F089580E090E069E00E94202081E090E06FE776E04DE41A
:2042000050E00E9442200895CF92DF92EF92FF920F931F93082F6A017B01CB01BA0120E0F0
:2042200030E040E050E00E944036882314F484E00EC1043608F459C0045690E0033008F0DC
:204240004BC0913089F0913030F09230D1F0933009F0F8C031C0E02FF0E0EE0FFF1FEE0F59
:20426000FF1FE158F94F08C0E02FF0E0EE0FFF1FEE0FFF1FE557F94FC082D182E282F382D0
:20428000E1C010E0000F111F000F111F0956194FC701B60120E030E040E752E40E947E3804
:2042A00020E030E040E752E40E947E38F8016083718382839383C6C0E02FF0E0EE0FFF1FCE
:2042C000EE0FFF1FED55F94FD701C601B05880839183A283B383B6C00A3008F4B7C09F5FFF
:2042E000943009F4B3C00A50A9CFC701B6010E944C390E94B436E02FF0E0EC31F10508F09C
:20430000A5C0EC5CFF4FEE0FFF1F0590F491E02D0994633010F486E09AC06093AF0692C072
:204320006093B2068FC06093B00602C06093B1060E944E1D87C0662321F08091BC068460C9
:2043400009C08091BC068B7F05C0662331F08091BC0680648093BC0675C08091BC068F7BAA
:20436000F9CF662321F08091BC068068F3CF8091BC068F77EFCF6093B30664C0C092B406EB
:20438000D092B506E092B606F092B7065BC0C092B806D092B906E092BA06F092BB0652C0C0
:2043A000662321F08091BC068160D4CF8091BC068E7FD0CF662341F08091BC0684FD02C0BD
:2043C0008AE045C08062C6CF8091BC068F7DC2CF662321F08091BC06886003C08091BC069C
:2043E000877F8093BC060E94BB292CC0662321F08091BC068061AECF8091BC068F7CAACF4E
:204400006093BD061FC0C092BE06D092BF06E092C006F092C10616C0C092C206D092C3062E
:20442000E092C406F092C5060DC06093C6061092C70608C0C092C806D092C906E092CA069D
:20444000F092CB060E94F62080E001C083E01F910F91FF90EF90DF90CF9008959DE0899F5F
:20446000C001112480509E4F4CE050E00E94422008950F931F93CF93DF93162F072F9DE06C
:20448000899FE0011124C050DE4F862F972FBE014CE050E00E948B20892B11F081E00FC0D9
:2044A000E12FF02F8CE0DF011D928A95E9F7CE01612F702F4CE050E00E94422080E0DF91A5
:2044C000CF911F910F910895CF92DF92EF92FF920F931F93DF93CF93CDB7DEB72C970FB6E2
:2044E000F894DEBF0FBECDBFE82E80FFC1C08AE08093AF0689E18093B2061092B0061092C3
:20450000B10683E08093B3068AE097EDA3E2BCE38093B4069093B506A093B606B093B70609
:204520008FE692E1A3E0BBE38093B8069093B906A093BA06B093BB061092BD0680E090E093
:20454000A8ECB1E48093BE069093BF06A093C006B093C10680E090E0AAEFB3E48093C20695
:204560009093C306A093C406B093C5068AEF90E09093C7068093C60680E090E0A0E8BFE392
:204580008093C8069093C906A093CA06B093CB061092BC0680E090E0A8E4B4E480937F0641
:2045A00090938006A0938106B09382068093830690938406A0938506B09386068093870657
:2045C00090938806A0938906B0938A0680938B0690938C06A0938D06B0938E0680938F06F7
:2045E00090939006A0939106B09392068093930690939406A0939506B093960680E090EA6D
:20460000ACE0B7E48093970690939806A0939906B0939A0680939B0690939C06A0939D06FE
:20462000B0939E0680939F069093A006A093A106B093A20680E090E0A8E4B3EC8093A30696
:204640009093A406A093A506B093A6068093A7069093A806A093A906B093AA068093AB0696
:204660009093AC06A093AD06B093AE060E94F620E1FE16C0FE0131968CE0DF011D928A953B
:20468000E9F700E012E06F01C801B6014CE050E00E944220035F1F4FB2E008361B07A1F7BE
:2046A000E2FE0AC080E093E060E00E94202081E593E060E00E942020E3FE05C08EEA93E0CF
:2046C00060E00E9420202C960FB6F894DEBF0FBECDBFCF91DF911F910F91FF90EF90DF9012
:2046E000CF9008950E94E020882341F487E00E94552E8FEF0E9464220E9470310895BC016D
:204700008EEA93E040E550E00E9442200895CF93DF93EC016EEA73E040E550E00E948B20AA
:20472000892B11F081E009C018828EEA93E0BE0140E550E00E94422080E0DF91CF91089530
:2047400091E5899FC001112480509D4F40E550E00E94422008950F931F93CF93DF938B015F
:2047600091E5899FE0011124C050DD4FCB01BE0140E550E00E948B20892B11F081E009C03D
:20478000F8011082CE01B80140E550E00E94422080E0DF91CF911F910F91089520910705D3
:2047A00080910805821769F0922F9F5F923109F490E080910A05281711F490930A05909341
:2047C000070508959091070580910805891719F420E030E006C089E2989F900111242B5D72
:2047E0003D4FC901089520E09091070580910905981709F421E0822F089580912A0590911E
:204800002B05A0912C05B0912D0580930B0590930C05A0930D05B0930E0580912E0590913C
:204820002F05A0913005B091310580930F0590931005A0931105B0931205809132059091FC
:204840003305A0913405B09135058093130590931405A0931505B09316050895809108056E
:2048600090910705891710F0891B08958E5E891B08954F925F926F927F928F929F92AF9286
:20488000BF92CF92DF92EF92FF920F931F93CF93DF9380910805882309F482E1782E7A94DE
:2048A00060900A05761409F4F2C089E2789E4001112485E292E0880E991EF401A588B68843
:2048C000C788D08C21A132A143A154A1CA01B9010E946735F40125A136A147A150A50E94EB
:2048E0007E387B018C01B501C601A80197010E94403687FD04C0D801C70157016D01C501AE
:20490000D601F401818B928BA38BB48B772011F432E1732E7A94761409F04EC08091070529
:20492000681609F050C00E94C7164DC0769CE0011124CB5DDD4F772011F422E1722E7A949B
:2049400080910705781611F40E94C716AD88BE88CF88D88C69897A898B899C89A601950187
:204960000E944036882331F129A13AA14BA15CA1CA01B9010E9467352DA13EA14FA158A567
:204980000E947E38F40121893289438954890E9467357B018C01A60195010E944036882375
:2049A0002CF4E98AFA8A0B8B1C8B04C0A98ABA8ACB8ADC8A4E0102C099E2692E80910A056A
:2049C000781609F0B3CFA0900A05BA2CB394F2E1BF1609F4BB2489E2A89E800111240B5D0F
:2049E0001D4F5090080589E2482E4CC0B49CE0011124CB5DDD4FF801C188D288E388F48834
:204A000069887A888B889C88C701B601A40193010E94403688231CF5F80121A132A143A16E
:204A200054A1CA01B9010E946735F80125A136A147A150A50E947E389B01AC01C701B6012B
:204A40000E9467357B018C01A40193010E94403688232CF4E98AFA8A0B8B1C8BAB2C6989F6
:204A60007A898B899C892D893E894F89588D0E944036882309F4AB2CB394F2E1BF1609F43D
:204A8000BB248E01B51409F0B1CFA0920A05DF91CF911F910F91FF90EF90DF90CF90BF90DA
:204AA000AF909F908F907F906F905F904F9008950E94C7168091070580930A050E94392433
:204AC0000895209107052F5F223109F420E080910805281729F460E070E080E090E012C0F2
:204AE00030E089E290E0289FF001299FF00D389FF00D1124EB5DFD4F6189728983899489A3
:204B00000E940B3908952F923F924F925F926F927F928F929F92AF92BF92CF92DF92EF9265
:204B2000FF920F931F93DF93CF93CDB7DEB7E6970FB6F894DEBF0FBECDBF9DA78CA74EA773
:204B40005FA768AB79AB2AAB9091080589E2989F4001112425E232E0820E931ED4011D961B
:204B60001D921D921D921C92509780E090E0A0E0B0E0F40185A396A3A7A3B0A7108289E9B8
:204B800096E7A6E9BEE781A392A3A3A3B4A32FE736E03C8F2B8F1E010894211C311C4BE04D
:204BA000442E45E0542E9A8E898E1BA666247724ECA5FDA5E60DF71D608171818281938193
:204BC000AB8DBC8D2D913D914D915C910E947E380E944E389B01AC01F10120833183428326
:204BE0005383F20180819181A281B381281B390B4A0B5B0B57FF07C05095409530952195EE
:204C00003F4F4F4F5F4FA98DBA8D11962D933D934D935C931497F40185859685A785B0890D
:204C2000281739074A075B0710F49C01AD01D4011D962D933D934D935C935097F101608152
:204C4000718182819381D2012D913D914D915C91621B730B840B950B0E94E236EB8DFC8D3C
:204C600020813181428153810E9447365B016C01EDE0F0E0EC0FFD1FE60DF71D60837183D0
:204C80008283938320E030E040E050E00E944036882344F4D4011C918BA50E94CC20182B1B
:204CA000F4011083D4019596ED90FD900D911C919897C601B501A60195010E947E389B013A
:204CC000AC01C801B7010E9467357B018C01CB01D801F40185A396A3A7A3B0A7FBA5FF5FC5
:204CE000FBA724E030E0620E731E8B8D9C8D04969C8F8B8F220E331E420E531EA98DBA8D1E
:204D00001496BA8FA98FF33009F052CFB701C8010E940B397B018C01F40165A376A387A37B
:204D200090A785859685A785B0890097A105B10509F40CC26EA57FA588A999A920E030E03A
:204D400040E050E00E94403688232CF489E996E7A6E9BEE71FC09AA9992361F06EA57FA597
:204D600088A999A9A80197010E947E386EA77FA788AB99AB6EA57FA588A999A920E030E0BB
:204D800040E85FE30E944036882344F480E090E0A0E8BFE38EA79FA7A8ABB9AB60E070E0F2
:204DA00080E89FE3A80197010E9447366FA378A789A79AA7DE011D96BAA3A9A3E7E1F5E02F
:204DC000F8A3EF8F2BE836E03E8F2D8F80E090E0A0E0B0E08BA39CA3ADA3BEA3DE0159963C
:204DE000BEABADABE9A1FAA1E080F18002811381C801B70120E030E040E050E00E944036EC
:204E0000882309F47CC0C801B7012FA138A549A55AA50E947E382B013C01A9A1BAA16D932D
:204E20007D938D939C93139760E070E080E89FE3A30192010E9447365B016C01E894D7F885
:204E4000C601B501ED8DFE8D20813181428153810E947E387B018C016EA57FA588A999A9DB
:204E6000A80197010E94403687FD04C0EEA6FFA608AB19ABD4019196BC91BBABF401F2A1AA
:204E8000FCABD40193962C90939794963C90C601B501ED8DFE8D24853585468557850E9463
:204EA0007E387B018C016BA97CA9C101A80197010E94403687FD05C0D801C701EBAA9CAB19
:204EC0001D018BA99CA9D101F40181A392A3A3A3B4A3C301B201AF8DB8A12D913D914D9108
:204EE0005C910E947E389B01AC016BA17CA18DA19EA10E9466356BA37CA38DA39EA3E9A129
:204F0000FAA13496FAA3E9A32F8D38A12C5F3F4F38A32F8F8D8D9E8D04969E8F8D8FADA93E
:204F2000BEA9EA17FB0709F05DCF9091080580910705981751F480E090E0A0E0B0E0F401CE
:204F4000818B928BA38BB48B11C06BA17CA18DA19EA124EA30E74DE75FE30E94433818166E
:204F600054F480E090E0A0E0B0E0F401818F928FA38FB48F66C06BA17CA18DA19EA124EAA4
:204F800030E74DE75FEB0E944338181644F084EA90E7ADE7BFEB8BA39CA3ADA3BEA360E07C
:204FA00070E080E89FE32BA13CA14DA15EA10E94663520E030E040E05FE30E947E380E9478
:204FC0000B395B016C01D40191966D917D918D919C9194972091B4063091B5064091B606D2
:204FE0005091B7060E947E38A60195010E947E387B018C0160E070E080E89FE3A601950166
:205000000E9466359B01AC01C801B7010E9447367B018C0120E030E040E050E00E944036E9
:20502000882354F40F2EF0E0EF2EF0E0FF2EF0E00F2FF0E01F2FF02DF401E18EF28E038F97
:20504000148F6EA57FA588A999A99B01AC010E947E387B018C01D4015D966D937D938D9361
:205060009C93909759965C9059975A964C905A975B963C905B975C962C90D0902305C0901D
:205080002405B0902505A09026052D2D3C2D4B2D5A2D0E94403687FD04C06D2C7C2CF501C9
:2050A00005C0D801C7013701FA2FEB2F652D742D832D922D93014F2F5E2F0E94403688230B
:2050C0002CF4852D942DA32DB22D0EC0C801B7012D2D3C2D4B2D5A2D0E94403687FD06C01B
:2050E0008D2D9C2DAB2DBA2D7C018D01F401E58AF68A078B108FA7E1B5E0FE013D968CE0F3
:2051000001900D928150E1F7F401858D968DA78DB0A18093230590932405A0932505B093E0
:205120002605ABE0B5E0FE0131968CE001900D928150E1F780910905809308058F5F823139
:2051400009F480E0809309050E943924E6960FB6F894DEBF0FBECDBFCF91DF911F910F91EF
:20516000FF90EF90DF90CF90BF90AF909F908F907F906F905F904F903F902F9008958CE103
:20518000EBE0F5E0DF011D928A95E9F7109207051092080581E08093090510920A050895B4
:2051A0006F927F928F929F92AF92BF92CF92DF92EF92FF920F931F93CF93DF934C013B0164
:2051C0005A01FB018081F401E80FF11DEF0189918D3229F481812196CC24C39405C08B3215
:2051E00011F481812196CC2420E030E040E050E0DD24E0E070E0682F60536A30F8F4EF5F72
:20520000E930C0F47111DA94DA01C901F2E0880F991FAA1FBB1FFA95D1F7280F391F4A1F19
:205220005B1F220F331F441F551F260F311D411D511D09C0772339F4D39405C06E3F29F4C5
:20524000772319F471E08991D6CFEE2311F480E050C0CA01B9010E94E0367B018C0120E0CB
:2052600030E040E050E00E944036882369F42BC0C801B7012AE037ED43E25CE30E947E3858
:205280007B018C01F2E0DF0E8FEFD8168CF3D81659F4C801B7012DEC3CEC4CEC5DE30E9444
:2052A0007E387B018C010FC0DD2069F0C801B70120E030E040E251E40E947E387B018C01C1
:2052C000DA941D149CF3CC2049F0D801C701B058F50180839183A283B38305C0F501E0824D
:2052E000F18202831383882D80958C0FF301808381E0DF91CF911F910F91FF90EF90DF90C6
:20530000CF90BF90AF909F908F907F906F90089520EA3FE004C0F9013197F1F701970097E1
:20532000D1F70895AF92BF92CF92DF92EF92FF920F931F937B018C0159016A01A80197012F
:205340000E947E387B018C01C601B501A60195010E947E389B01AC01C801B7010E946735D2
:205360000E940B391F910F91FF90EF90DF90CF90BF90AF90089584B1897E84B985B186615A
:2053800085B98091BC0683FF09C080916B00866180936B0080916800816008C080916B0032
:2053A000897E80936B00809168008E7F809368000895EBE6F0E08081897E8083E8E6F0E080
:2053C00080818E7F80830895CF92DF92EF92FF920F931F93CF93DF936C01C0E0D0E0F6015F
:2053E000EC0FFD1FE080F18002811381C801B70120E030E040E050E00E94433818166CF026
:20540000FE01E158F94FC801B70124A135A146A157A10E94403688231CF580912805883047
:2054200091F49FB7F894809144058860809344059FBF0E949514809127058823B1F4809120
:2054400028058823B1F70E9440049FB7F894809146058560809346059FBF0E94951405C0F7
:205460002496CC30D10509F0BACFDF91CF911F910F91FF90EF90DF90CF9008951F920F9233
:205480000FB60F9211242F933F934F935F936F937F938F939F93AF93BF93EF93FF938091E8
:2054A0002805813071F080914605882351F40E9440049FB7F89480914605836080934605FC
:2054C0009FBFFF91EF91BF91AF919F918F917F916F915F914F913F912F910F900FBE0F9003
:2054E0001F901895EF92FF920F931F93CF93DF9313B116718091BC0686FD02C086E118270D
:20550000112311F400E017C000E0C0E0D0E081E0E82EF12C8C2F0E94D620812341F0C701E7
:205520000C2E02C0880F991F0A94E2F7082B2196C330D10579F7802FDF91CF911F910F91B7
:20554000FF90EF9008952F923F924F925F926F927F928F929F92AF92BF92CF92DF92EF92F3
:20556000FF920F931F93DF93CF93CDB7DEB765970FB6F894DEBF0FBECDBF8B8B80912705C3
:20558000882309F0ABC123EAA22E26E0B22E6624772488249924CC24DD242E010894411C91
:2055A000511C3B89232F30E03D8B2C8B8C2D0E94C220F201EC0DFD1D80838C899D890C2C20
:2055C00002C0959587950A94E2F780FF15C0F501608171818281938120E030E040EC5FEB92
:2055E0000E947E387B018C01B301C401A80197010E944338181624F4C301D4017C018D0189
:205600000894C11CD11C24E030E0A20EB31E33E0C316D10429F0D801C70137014D01C6CFF9
:20562000A090C206B090C306C090C406D090C5064424439463E0688BCE0104966AE275E0A5
:205640000E944B338091BD06E82FF0E0FA8BE98BDE0114969AE2292E95E0392EB101552413
:2056600050E020E030E03701480197FA909497F890948C899D89022E02C0959587950A94F0
:20568000E2F780FF28C0FB01108211821282138289899A89022E02C0959587950A94E2F79C
:2056A00080FF03C0442019F008C0442031F0ED92FD920D931C93139705C06D927D928D92F5
:2056C0009C9213975F5FE1E0F0E0EC0FFD1FE20FF31F8081582A2F5F3F4F14966C5F7F4FA7
:2056E0002330310531F6652F70E080E090E00E94E0360E940B397B018C01509243050E94D3
:20570000FD23C601B501A80197010E947E38AB01BC01CE01049620E00E9483250E94E91696
:205720000E946716442011F10E94722A20E030E0482F50E0E1E0F0E0EC0FFD1FE20FF31F44
:20574000E081852D8E2359F0BA01022E02C0759567950A94E2F760FF02C0E0955E222F5F6E
:205760003F4F2330310531F7509243050E94E916809144058473D1F080914405807341F48B
:20578000442009F0A6C00E94722A7B89872329F00E9440040E949514A1C09FB7F8948091BC
:2057A00044058B7F809344059FBF04C0852D8C7109F0B8CF0E94B61D0E94BF288091C6060E
:2057C0009091C7060E94882981E04826C9F06091C8067091C9068091CA069091CB0620E09E
:2057E00030E040EA50E40E947E387B018C01A090BE06B090BF06C090C006D090C10610C0D4
:20580000E090C806F090C9060091CA061091CB06A090C206B090C306C090C406D090C506E2
:205820009889992319F09150988B06CF8091BD06482E5524A090C806B090C906C090CA06B9
:20584000D090CB063501460197FA909497F890940FE716E0EE24FF248C899D890E2C02C0DA
:20586000959587950A94E2F780FF23C0C2010E2C02C0959587950A94E2F780FF0AC0C6017D
:20588000B501F80124A135A146A157A10E94673502C0C401B301F801208131814281538183
:2058A0000E947E380E944E38F10160837183828393830894E11CF11C24E030E0220E331E49
:2058C0000C5F1F4F33E0E316F10431F60E94FD2305C08091440582FF60CF5ACF65960FB64D
:2058E000F894DEBF0FBECDBFCF91DF911F910F91FF90EF90DF90CF90BF90AF909F908F904E
:205900007F906F905F904F903F902F9008958F929F92AF92BF92CF92DF92EF92FF920F9316
:205920001F93DF93CF93CDB7DEB72A970FB6F894DEBF0FBECDBF7B018C01A42E20E030E0D5
:2059400040E050E00E94403688233CF48DE20E94C91317FB109517F91095DA2C0CC0C80110
:20596000B70120E030E048EC52E40E947E387B018C018EEFD80EE1E0ED1588F3A0FE0AC08B
:20598000C801B70120E030E040E251E40E947E387B018C01C801B70120E030E040E05FE3CB
:2059A0000E9467350E94AF366B017C019E012F5F3F4FF901EA0DF11D8EE28083BB244901E3
:2059C0001EC0BA1409F4B39484010B0D111DC701B6012AE030E040E050E00E947739605D14
:2059E000F8016083B394C701B6012AE030E040E050E00E947739C901DA016C017D01C114E4
:205A0000D104E104F104E9F606C0FC01EB0DF11D2083B39403C0CE01019620E3BA14A8F3B0
:205A2000BA1489F48B2D8F5FFE01E80FF11D90E39183B82EB39407C0FE01EB0DF11D8081F0
:205A40000E94C913BA94BB20B9F72A960FB6F894DEBF0FBECDBFCF91DF911F910F91FF9039
:205A6000EF90DF90CF90BF90AF909F908F90089543E00E94872C08959B01AC018091BC062F
:205A800080FF0AC0CA01B9012BE832E441E25DE30E947E3841E003C0CA01B90140E00E9429
:205AA000872C08959B01AC018091BC0680FF0AC0CA01B9012BE832E441E25DE30E947E38C8
:205AC00044E003C0CA01B90143E00E94872C0895CF93DF93EC0102C00E94C913FE0121968E
:205AE00084918823C9F7DF91CF910895CF93DF93EC0103C021960E94C91388818823D1F784
:205B0000DF91CF910895CF92DF92EF92FF921F93DF93CF93CDB7DEB7382F562FCDB6DEB692
:205B20008DB79EB7841B91090FB6F8949EBF0FBE8DBFEDB6FEB60894E11CF11C20E00DC002
:205B4000F701E20FF11D832F652F0E946B399083832F0E946B39382F2F5F241788F3142FC9
:205B600009C0F701E10FF11D31978081805D0E94C91311501123A9F70FB6F894DEBE0FBE53
:205B8000CDBECF91DF911F91FF90EF90DF90CF9008958A3010F441E005C0843610F043E000
:205BA00001C042E06AE00E94832D089562E048E00E94832D08953D98459A0895982F1092B6
:205BC000CC068091BC0687FD03C080E28093CC06992331F08091CC0690E289278093CC06CB
:205BE000089586B180729091CC0689270895809145058130B1F486B180729091CC06891732
:205C000081F010924505E6E3F5E0DF011C978CE00D9001928150E1F7809144058064809360
:205C20004405089583E994E00E94682D089587ED95E00E94682D08951F93182F87E696E031
:205C40000E94682D1430D9F0153038F4123089F0133090F4113019F509C01630B1F01630C8
:205C600088F01730A9F01830D1F415C085E596E014C081E496E011C08FE296E00EC087E26C
:205C800096E00BC08EE196E008C083E196E005C08BE096E002C088EF95E00E94682D84EF3E
:205CA00095E00E94682D1F9108951F93182F882319F48BEC97E05CC083EC97E00E94682D13
:205CC0001730A9F1183078F4133029F1143030F41130C9F0123009F042C018C0153009F11C
:205CE000163010F51BC01B3071F11C3028F4193021F11A3028F51EC0153141F1163161F1B8
:205D0000143169F526C08BEA97E002C089E997E00E94682D2BC087E897E0FACF8DE797E0A7
:205D2000F7CF8CE697E0F4CF8DE597E0F1CF8CE397E0EECF83E397E0EBCF88E297E0E8CF76
:205D400085E197E0E5CF87E097E0E2CF81EF96E0DFCF8DED96E0DCCF89EC96E0D9CF87EBEF
:205D600096E00E94682D812F0E94C92D84EB96E00E94682D1F910895DF92EF92FF920F93A0
:205D80001F93DF93CF93CDB7DEB768970FB6F894DEBF0FBECDBFDE011196EAE2F5E08CE08B
:205DA00001900D928150E1F7809128058430F1F0853038F48130E9F0813078F0823019F5F3
:205DC0001BC0803181F0813118F48830E1F408C08032A9F08034B9F403C087E391E011C098
:205DE00082E391E00EC08CE291E00BC086E291E008C08FE191E005C088E191E002C082E10F
:205E000091E00E94682D8091B30690E083709070892B39F0CE010D96BE016F5F7F4F0E9461
:205E20004B338091B30680FF1EC08BE091E00E94682D6D857E858F8598890E94522D89E0F6
:205E400091E00E94682D69897A898B899C890E94522D89E091E00E94682D6D897E898F8925
:205E6000988D0E94522D8091B30681FF50C082E091E00E94682D8E01035F1F4F8AE6E82E93
:205E800085E0F82EDD24F701608171818281938124853585468557850E9467359B01AC0103
:205EA000F80160817181828193810E946635F8016083718382839383F2E0DF1679F42091F2
:205EC00082053091830540918405509185050E946635F8016083718382839383F80160812B
:205EE0007181828193810E94522DF2E0DF1621F080E091E00E94682DD3940C5F1F4F84E0F4
:205F000090E0E80EF91E93E0D91609F0BCCF8091B30682FF08C08AEF90E00E94682D0E9449
:205F20002E240E94C92D8091B30683FF08C085EF90E00E94682D0E94A8130E94C92D809142
:205F4000B30684FF0AC08FEE90E00E94682D0E94722A62E043E00E94832D8BEE90E00E9497
:205F6000682D68960FB6F894DEBF0FBECDBFCF91DF911F910F91FF90EF90DF9008950F936B
:205F80001F938C018DE491E00E94682DC8010E94762D89E491E00E94682D1F910F91089599
:205FA000FF920F931F93F82E8B0182E691E00E94682D8F2D0E94C92D80E691E00E94682DD8
:205FC000C8010E94762D8DE591E00E94682D1F910F91FF90089587ED91E00E94682D8091F0
:205FE00047058230A1F0833028F4882341F08130B9F408C0833071F0883091F40EC084EDB1
:2060000091E002C081ED91E00E94682D12C08EEC91E0FACF8BEC91E0F7CF87EC91E0F4CF5C
:2060200082EC91E00E94682D8091470582500E94C92D8FEB91E00E94682D80914D058A5C18
:206040000E94C92D80914B05813041F0813018F0823059F406C08AEB91E005C085EB91E05B
:2060600002C080EB91E00E94682D80914905882319F48BEA91E002C086EA91E00E94682D74
:2060800080914A05882319F481EA91E002C08CE991E00E94682D80914805813019F487E9A1
:2060A00091E002C082E991E00E94682D80914E05813041F0813018F0823059F406C08EE860
:2060C00091E005C08AE891E002C086E891E00E94682D80915005813029F0813048F0823004
:2060E00059F403C082E891E005C08EE791E002C08AE791E00E94682D80914F05882319F016
:20610000823041F403C086E791E002C082E791E00E94682D8FE691E00E94682D8091590598
:206120000E94C92D8CE691E00E94682D609155057091560580915705909158050E943C2D10
:2061400089E691E00E94682D609151057091520580915305909154050E943C2D85E691E0BF
:206160000E94682D08951F9388E092E00E94682D10E086E395E0612F0E942F330E94522D05
:20618000123021F086E092E00E94682D1F5F133081F784E092E00E94682D809142050E945D
:2061A000C92D80E092E00E94682D1F910895CF92DF92EF92FF920F931F93DF93CF93CDB703
:2061C000DEB72C970FB6F894DEBF0FBECDBFEE246E010894C11CD11C8E2DB6010E943922CA
:2061E000882321F487E00E94552E6BC08DEF91E00E94682D86E0E81621F0E7E0EE1649F487
:2062000003C08AEF91E002C087EF91E00E94682D04C08E2D8A5C0E94C92D85EF91E00E946D
:20622000682D8601FF24F80160817181828193810E94522DF2E0FF1619F083EF91E002C086
:206240008FEE91E00E94682DF3940C5F1F4F83E0F81649F7E394E8E0EE1609F0BDCF89EEC9
:2062600091E00E94682D06E715E0FF24F80160817181828193810E94522DF2E0FF1619F07D
:2062800087EE91E002C083EE91E00E94682DF3940C5F1F4F83E0F81649F78DED91E00E949F
:2062A000682D609182057091830580918405909185050E94522D89ED91E00E94682D0E9422
:2062C000B3302C960FB6F894DEBF0FBECDBFCF91DF911F910F91FF90EF90DF90CF90089539
:2062E000FF920F931F93CF93DF938FE894E00E94682D8091AF060E94C92D86E794E00E94E2
:20630000682D8091B2060E94C92D88E594E00E94682D8091B0060E94C92D8FE394E00E9488
:20632000682D8091B0060E94D62D88E394E00E94682D8091B1060E94C92D80E294E00E946E
:20634000682D8091B1060E94D62D89E194E00E94682D8091BC0690E0969587959695879555
:2063600081700E94C92D88EF93E00E94682D8091BC0690E056E0969587955A95E1F78170FB
:206380000E94C92D88ED93E00E94682D90E08091BC0687FD91E0892F0E94C92D88EB93E0D8
:2063A0000E94682D8091B3060E94C92D82EA93E00E94682D8091B3060E94D62D8AE993E0D9
:2063C0000E94682D6091B4067091B5068091B6069091B7060E94382D8AE793E00E94682D52
:2063E0006091B8067091B9068091BA069091BB060E94382D8FE593E00E94682D8091BC0683
:2064000081700E94C92D82E493E00E94682D8091BC0690E045E0969587954A95E1F781708C
:206420000E94C92D87E293E00E94682D8091BC0690E033E0969587953A95E1F781700E94DA
:20644000C92D8CE093E00E94682D8091BC0690E024E0969587952A95E1F781700E94C92D82
:2064600080EF92E00E94682D8091BD060E94C92D86ED92E00E94682D8091BD060E94D62D03
:206480008EEC92E00E94682D6091BE067091BF068091C0069091C1060E94382D81EB92E0BA
:2064A0000E94682D6091C2067091C3068091C4069091C5060E94382D84E992E00E94682D3E
:2064C0008091C6060E94C92D85E792E00E94682D6091C8067091C9068091CA069091CB06D0
:2064E0000E94382D8CE592E00E94682D10E094E6F92E6AC08AE592E00E94682D802F8F0D5D
:206500000E94C92D88E592E00E94682D113061F0113028F0123069F01330E9F415C0688169
:2065200079818A819B8115C06C857D858E859F8510C0688D798D8A8D9B8D20E030E041E6FA
:2065400055E40E94473605C06CA17DA18EA19FA190580E94382D85E592E00E94682D013051
:2065600041F0013018F0023059F406C083E592E005C081E592E002C08FE492E00E94682D17
:20658000113051F0113028F0123049F0133071F409C085E492E008C083E392E005C082E290
:2065A00092E002C082E192E00E94682D8EE092E00E94682D0F5F2496033009F09BCF1F5F48
:2065C000143031F08AE0F80ECFE7D6E000E092CFDF91CF911F910F91FF9008951F93182FF4
:2065E0008CEA96E00E94682D133091F014302CF4113041F01230B1F408C0143061F0153055
:2066000089F40CC081EA96E00BC086E996E008C083E896E005C088E796E002C08CE696E0A3
:206620000E94682D89E696E00E94682D84EF91E00E9488291F91089587B1887F87B988B1CB
:20664000876088B9ECE6F0E0808187608083E8E6F0E0808182608083089580E00895CF9305
:20666000DF93C62FD0E0CC0FDD1FCC0FDD1FFC01EC0FFD1F60817181828193810E94E2369D
:20668000C158D94F288139814A815B810E944736DF91CF910895EF92FF921F93CF93DF938B
:2066A0007B01EC0110E0C701612F0E942F3369937993899399931F5F1330A9F7DF91CF91A4
:2066C0001F91FF90EF9008951F920F920FB60F9211242F933F934F935F936F937F938F93D4
:2066E0009F93AF93BF93EF93FF9386B18095877091F080FF03C00E9440040DC082FF04C0C2
:2067000080914405826005C081FF05C080914405886080934405FF91EF91BF91AF919F91C5
:206720008F917F916F915F914F913F912F910F900FBE0F901F901895CF93DF93EC0180E041
:20674000BE010E94AB23882351F08881882351F0CE010E94762DCE010E94850801C087E0EF
:206760000E94552E81E0BE010E94AB23882311F487E009C08881882341F0CE010E94762D8B
:20678000CE010E9485080E94552EDF91CF910895DF92EF92FF920F931F93DF93CF93CDB73A
:2067A000DEB729970FB6F894DEBF0FBECDBF7C0181E08983F70121812734A1F028345CF421
:2067C000233481F024340CF048C0222341F0243209F043C007C0283509F03FC003C00E944C
:2067E000122E64C1F7018281882309F059C12734A1F0283434F4243241F0233409F056C11D
:206800000FC0283509F052C11DC080912805887109F048C10E94703149C10E94EB2F46C11A
:2068200080912805823021F40E94400485E007C0882309F037C182E08093280584E00E94FD
:206840001C2E34C180912805813009F02FC183E00E941C2E1092280529C190912805923009
:2068600008F020C1293489F12A342CF4233259F0283439F412C02E3409F47CC0223509F402
:206880004AC0DD249EC082E08983F7018281882309F006C10E94D73009C18091BC0684FDF4
:2068A00002C015E004C184E0809328050E946C0480912705882309F0F9C0109228050E949B
:2068C0008A1DC7010E949C33F1C082E08983F7018281882339F4C7010E948723C7010E9468
:2068E000BF2FE4C08D3309F0DBC083E089838981F701E80FF11D8081339780838981F7016C
:20690000E80FF11D90818F5F8983992381F7C7010E947F23CBC082E08983F701828183357B
:2069200009F0BEC083E089838381843509F0B8C084E0898384818D3309F0B2C086818823F1
